:100000000C9434000C9455000C943E000C943E006B
:100010000C943E000C943E000C943E000C943E0068
:100020000C943E000C943E000C943E000C943E0058
:100030000C943E000C943E000C943E000C943E0048
:100040000C943E000C943E000C943E000C943E0038
:100050000C943E000C943E000C943E000C943E0028
:100060000C943E000C943E0011241FBECFEFD8E04C
:10007000DEBFCDBF0E9440000C946F000C940000C6
:10008000EAE2F0E080818083E4E2F0E08081816058
:100090008083E9E6F0E0808182608083EDE3F0E038
:1000A0008081816080837894FFCF1F920F920FB67A
:1000B0000F9211248F939F93EF93FF93F894E5E2AF
:1000C000F0E0808191E0892780837894FF91EF911F
:1000D0009F918F910F900FBE0F901F901895F894DD
:0200E000FFCF50
:00000001FF
