:100000000C9434000C943E000C943E000C943E0082
:100010000C943E000C943E000C943E000C943E0068
:100020000C943E000C943E000C943E000C943E0058
:100030000C943E000C943E000C943E000C943E0048
:100040000C943E000C943E000C943E000C943E0038
:100050000C943E000C943E000C943E000C943E0028
:100060000C943E000C943E0011241FBECFEFD8E04C
:10007000DEBFCDBF0E9440000C9485000C940000B0
:100080001F93EAE2F0E08081806C8083E4E4F0E09A
:10009000808183688083E5E4F0E0808181608083F3
:1000A0008FEF87BDABE2B0E060E177E249E150E07D
:1000B000E7E4F0E01FEF8C9180648C939B01CA0110
:1000C0000197F1F721503040D1F7808186958083E8
:1000D0009B01CA010197F1F721503040D1F780818F
:1000E000869580839B01CA010197F1F7215030402A
:1000F000D1F78081869580839B01CA010197F1F732
:0E01000021503040D1F71083D6CFF894FFCFB6
:00000001FF
