:100000000C9434000C945A000C943E000C943E0066
:100010000C943E000C943E000C943E000C943E0068
:100020000C943E000C943E000C943E000C943E0058
:100030000C943E000C943E000C943E000C943E0048
:100040000C943E000C943E000C943E000C943E0038
:100050000C943E000C943E000C943E000C943E0028
:100060000C943E000C943E0011241FBECFEFD8E04C
:10007000DEBFCDBF0E9440000C946F000C940000C6
:10008000EAE2F0E080818083E4E2F0E08081816058
:100090008083EBE2F0E0808184608083E9E6F0E039
:1000A000808182608083EDE3F0E0808181608083E5
:1000B0007894FFCF1F920F920FB60F9211248F9357
:1000C000EF93FF93E5E2F0E080818E7F8083FF91E4
:1000D000EF918F910F900FBE0F901F901895F8948D
:0200E000FFCF50
:00000001FF
