:100000000C9434000C943E000C943E000C943E0082
:100010000C943E000C943E000C943E000C943E0068
:100020000C943E000C943E000C943E000C943E0058
:100030000C943E000C943E000C943E000C943E0048
:100040000C943E000C943E000C943E000C943E0038
:100050000C943E000C943E000C943E000C943E0028
:100060000C943E000C943E0011241FBECFEFD8E04C
:10007000DEBFCDBF0E9472000C949E000C94000065
:1000800088E284B981E58CBD08958EBDEDE4F0E091
:1000900080818823ECF78EB50895CF93DF93FC0120
:1000A0000097E9F0ABE2B0E0C8EED3E040E951E000
:1000B000CA01742F692F8C9181608C939E01CA01B3
:1000C0000197F1F721503040D1F71C929E01CA01EF
:1000D0000197F1F721503040D1F7319761F7DF9167
:1000E000CF910895EF92FF921F93CF93DF930E94D9
:1000F0004000EAE2F0E080818160808310E0C8E89F
:10010000D3E10F2EF0E9EF2EF1E0FF2EF02D1F5F6F
:10011000812F0E9445008E3731F4812F90E00E949C
:100120004D00CE0105C080E197E20E944D00CE0156
:10013000F7013197F1F7019751F3FACFF894FFCF18
:00000001FF
