:100000000C9434000C945F000C9446000C94460051
:100010000C9446000C9446000C9446000C94460048
:100020000C9446000C9446000C9446000C94460038
:100030000C9446000C9446000C9474000C944600FA
:100040000C9446000C9446000C9446000C94460018
:100050000C9446000C9446000C9446000C94460008
:100060000C9446000C94460011241FBECFEFD8E03C
:10007000DEBFCDBF11E0A0E0B1E001C01D92A23013
:10008000B107E1F70E9448000C949B000C9400001B
:10009000E4E2F0E0808180628083E5E2F0E0A0E2CB
:1000A00060E177E248EC50E080818A2780839B0101
:1000B000CA010197F1F721503040D1F7F5CF1F92D7
:1000C0000F920FB60F9211248F93EF93FF93E5E2F7
:1000D000F0E080818E7F8083FF91EF918F910F9070
:1000E0000FBE0F901F9018951F920F920FB60F9290
:1000F00011248F939F93EF93FF9380910001909130
:10010000010101969093010180930001C29754F080
:100110001092010110920001EBE2F0E0808190E486
:1001200089278083FF91EF919F918F910F900FBE50
:0A0130000F901F901895F894FFCF70
:00000001FF
