:100000000C9434000C943E000C943E000C943E0082
:100010000C943E000C943E000C943E000C943E0068
:100020000C943E000C943E000C943E000C943E0058
:100030000C943E000C943E000C943E000C943E0048
:100040000C943E000C943E000C943E000C943E0038
:100050000C943E000C943E000C943E000C943E0028
:100060000C943E000C943E0011241FBECFEFD8E04C
:10007000DEBFCDBF0E9474000C9492000C9400006F
:1000800017BC88BD089518BC87BD08951092B300B1
:100090008093B40008951092B4008093B300089543
:1000A000E0EBF0E083EF8083808184BDE1EBF0E062
:1000B00082E08083808185BDE4EBF0E01082808166
:1000C000E3EBF0E080838081E8E4F0E080838081EE
:1000D00087BDEAE2F0E0808180668083E4E2F0E0C0
:1000E00080818660808308950E945000EAE2F0E0FB
:1000F00080818C6080838FEF0E9440008FEF0E9490
:100100004B0020E137E249E150E0CA010197F1F7E5
:1001100021503040D1F78FEF0E9443008FEF0E94B3
:080120004600FFCFF894FFCF69
:00000001FF
