:100000000C9434000C943E000C943E000C943E0082
:100010000C943E000C943E000C943E000C943E0068
:100020000C943E000C943E000C943E000C943E0058
:100030000C943E000C943E000C943E000C943E0048
:100040000C943E000C943E000C943E000C943E0038
:100050000C943E000C943E000C943E000C943E0028
:100060000C943E000C943E0011241FBECFEFD8E04C
:10007000DEBFCDBF0E946B000C9471000C94000099
:1000800080E480937C0087E880937A000895ECE711
:10009000F0E090818570892B8083EAE7F0E0808131
:1000A00080648083808184FFFDCFEAE7F0E0808177
:1000B000806180832091780030917900822F932F86
:1000C000089520E040E050E0CA010197F1F72F5F6A
:1000D0002431D1F7089580E00E9447000E9461001A
:0600E000FACFF894FFCFF7
:00000001FF
