:100000000C9434000C9451000C9451000C94510049
:100010000C9451000C9451000C9451000C9451001C
:100020000C9451000C9451000C9451000C9451000C
:100030000C9451000C9451000C9451000C945100FC
:100040000C9451000C949F000C9451000C9451009E
:100050000C9451000C9451000C9451000C945100DC
:100060000C9451000C94510011241FBECFEFD8E026
:10007000DEBFCDBF11E0A0E0B1E0ECE4F2E002C0F1
:1000800005900D92A831B107D9F711E0A8E1B1E0D0
:1000900001C01D92AD31B107E1F70E9493000C94AD
:1000A00024010C940000E4E2F0E080818061808310
:1000B00080EC8CBD0895EAE2F0E08081806480836A
:1000C000089516BC17BCE4E4F0E080818368808367
:1000D0000895E5E4F0E080818360808308951092C4
:1000E000C5008CE08093C40088E18093C10086E065
:1000F0008093C2000895982FE0ECF0E0808185FFA6
:10010000FDCF9093C6000895CF93DF93EC018881D3
:10011000882331F00E947B00219688818823D1F7C3
:10012000DF91CF9108950E946F000E9453000E94BA
:100130005B000E9461000E9469007894FFCF1F92CB
:100140000F920FB60F9211240F931F932F933F938B
:100150004F935F936F937F938F939F93AF93BF93CF
:10016000EF93FF9380E091E00E9484008EB508E158
:1001700011E090E0B8014AE050E00E94DF00C801C1
:100180000E94840084E191E00E9484008DE00E943E
:100190007B008AE00E947B00FF91EF91BF91AF91BD
:1001A0009F918F917F916F915F914F913F912F918F
:1001B0001F910F910F900FBE0F901F901895FB018C
:1001C0009F01E8944230C4F04532B4F44A3029F437
:1001D00097FB1EF4909581959F4F642F77270E947F
:1001E0001001805D8A330CF0895D8193CB0100970B
:1001F000A1F716F45DE251931082C9010C9400013D
:10020000DC01FC01672F71917723E1F7329704C07D
:100210007C916D9370836291AE17BF07C8F3089508
:10022000AA1BBB1B51E107C0AA1FBB1FA617B7071C
:1002300010F0A61BB70B881F991F5A95A9F7809538
:0C0240009095BC01CD010895F894FFCF0B
:10024C0049522053656E736F722052656164696EFA
:08025C00673A20002020000099
:00000001FF
