:100000000C9434000C943E000C943E000C943E0082
:100010000C943E000C943E000C943E000C943E0068
:100020000C943E000C943E000C943E000C943E0058
:100030000C943E000C943E000C943E000C943E0048
:100040000C943E000C943E000C943E000C943E0038
:100050000C943E000C943E000C943E000C943E0028
:100060000C943E000C943E0011241FBECFEFD8E04C
:10007000DEBFCDBF0E9419010C9420010C9400003A
:10008000EAE2F0E08081806D8083E7E2F0E0808149
:1000900083608083E4E2F0E08081876C8083E4E425
:1000A000F0E0808183688083E5E4F0E08081816016
:1000B000808317BC0895E5E2F0E08081806480834E
:1000C00080818F778083ABE2B0E08C9180618C93EC
:1000D00080818D7F80830895E5E2F0E080818F7BD1
:1000E0008083808180688083ABE2B0E08C918F7EDA
:1000F0008C938081826080830895EBE2F0E08081C0
:1001000080688083E5E2F0E080818E7F8083E8E292
:10011000F0E080818260808380818E7F808308957B
:10012000EBE2F0E080818F778083E5E2F0E0808190
:1001300081608083E8E2F0E080818D7F8083808130
:10014000816080830895EBE2F0E0808180618083AC
:10015000E5E2F0E080818D7F8083E8E2F0E080815D
:100160008260808380818E7F80830895EBE2F0E05F
:1001700080818F7E8083E5E2F0E0808182608083F1
:10018000E8E2F0E080818D7F8083808181608083E0
:100190000895E5E2F0E080818064808380818F773C
:1001A0008083ABE2B0E08C9180688C9380818E7FFD
:1001B00080830895E5E2F0E080818F7B80838081F9
:1001C00080688083ABE2B0E08C918F778C938081E4
:1001D0008160808308950E947D000E945B000895E5
:1001E0000E9490000E946C0008950E94DA000E9414
:1001F000A30008950E94C9000E94B60008950E94BD
:10020000FA0028E833E149E150E0CA010197F1F72B
:1002100021503040D1F708950E94F50028E833E1DD
:1002200049E150E0CA010197F1F721503040D1F780
:1002300008950E9440008FEF87BD0E94F500FDCF1A
:04024000F894FFCF60
:00000001FF
