:100000000C9434000C9446000C9446000C9446006A
:100010000C9446000C9446000C9446000C94460048
:100020000C9446000C9446000C9446000C94460038
:100030000C9446000C9446000C9446000C94460028
:100040000C9446000C9446000C9446000C94460018
:100050000C9446000C9446000C9446000C94460008
:100060000C9446000C94460011241FBECFEFD8E03C
:10007000DEBFCDBF11E0A0E0B1E001C01D92A23013
:10008000B107E1F70E9491000C94AE000C940000BF
:10009000EAE7F0E0808187608083ACE7B0E08C9194
:1000A00080648C9380818068808380818064808379
:1000B0000895ECE7F0E09081907F90839081892B08
:1000C0008083EAE7F0E0808180648083808186FD20
:1000D000FDCF2091780030917900822F932F0895E1
:1000E000E5E2F0E090819B7F90838EBDEDE4F0E04F
:1000F00080818823ECF7E5E2F0E0808184608083F2
:1001000008958EBDEDE4F0E080818823ECF78EB594
:100110000895E4E2F0E080818061808380EC8CBD12
:1001200008950F931F93CF93DF930E9448000E947E
:10013000890008E813E1C9E1D0E080E00E9459009D
:1001400080930001909301010E9481009801CE01EB
:100150000197F1F721503040D1F7EFCFF894FFCF5E
:00000001FF
