:100000000C9434000C9451000C9451000C94510049
:100010000C9451000C9451000C9451000C9451001C
:100020000C9451000C9451000C9451000C9451000C
:100030000C9451000C9451000C9451000C945100FC
:100040000C9451000C9451000C9451000C945100EC
:100050000C9451000C9451000C9451000C945100DC
:100060000C9451000C94510011241FBECFEFD8E026
:10007000DEBFCDBF11E0A0E0B1E0E6E7F2E002C0F4
:1000800005900D92A831B107D9F711E0A8E1B1E0D0
:1000900001C01D92A032B107E1F70E949F000C94AD
:1000A00039010C940000EAE7F0E0808187608083EA
:1000B000ACE7B0E08C9180648C9380818068808311
:1000C0008081806480830895ECE7F0E09081907FE8
:1000D00090839081892B8083EAE7F0E080818064BF
:1000E0008083808186FDFDCF20917800309179005A
:1000F000822F932F08951092C5008CE08093C40046
:1001000088E18093C10086E08093C2000895982F13
:10011000E0ECF0E0808185FFFDCF9093C60008956C
:10012000CF93DF93EC018881882331F00E94870010
:10013000219688818823D1F7DF91CF9108958F92FE
:100140009F92AF92BF92CF92DF92EF92FF920F9366
:100150001F93CF93DF930E9453000E947B000F2ECA
:10016000F0E0AF2EF1E0BF2EF02D0F2EF1E18F2E3B
:10017000F1E09F2EF02D0AE111E00F2EF5E1EF2EB8
:10018000F1E0FF2EF02D0F2EF8E8CF2EF3E1DF2E59
:10019000F02DC9E1D0E0C5010E94900080E30E94EB
:1001A0008700C4010E94900080E00E946400909348
:1001B000190180931801B8014AE050E00E94F40050
:1001C000C8010E949000C7010E9490009601CE01D4
:1001D0000197F1F721503040D1F78DE00E94870060
:1001E0008AE00E948700D7CFFB019F01E89442304C
:1001F000C4F04532B4F44A3029F497FB1EF49095CC
:1002000081959F4F642F77270E942501805D8A3357
:100210000CF0895D8193CB010097A1F716F45DE2A4
:1002200051931082C9010C941501DC01FC01672F68
:1002300071917723E1F7329704C07C916D937083BD
:100240006291AE17BF07C8F30895AA1BBB1B51E10B
:1002500007C0AA1FBB1FA617B70710F0A61BB70B36
:10026000881F991F5A95A9F780959095BC01CD01DB
:060270000895F894FFCF91
:1002760052656164696E67206368616E6E656C20A5
:0802860000203A2000202000B6
:00000001FF
