:100000000C9434000C9468000C943E000C943E0058
:100010000C943E000C943E000C943E000C943E0068
:100020000C943E000C943E000C943E000C94860010
:100030000C943E000C943E000C943E000C943E0048
:100040000C943E000C943E000C943E000C943E0038
:100050000C943E000C943E000C943E000C943E0028
:100060000C943E000C943E0011241FBECFEFD8E04C
:10007000DEBFCDBF0E9440000C949E000C94000097
:10008000EAE2F0E080818083808180648083109246
:100090008000E1E8F0E0108280818C608083109223
:1000A00085001092840080E29EE490938900809302
:1000B000880082E080936F00E9E6F0E08081826052
:1000C0008083EDE3F0E08081816080837894FFCFCE
:1000D0001F920F920FB60F9211248F939F93EF935D
:1000E000FF93F894E1E8F0E080819CE08927808329
:1000F00010928500109284007894FF91EF919F9167
:100100008F910F900FBE0F901F9018951F920F9216
:100110000FB60F9211248F939F93EF93FF93EBE20F
:10012000F0E0808190E489278083FF91EF919F9197
:100130008F910F900FBE0F901F901895F894FFCFDE
:00000001FF
