:100000000C9434000C9446000C9446000C9446006A
:100010000C9446000C9446000C9446000C94460048
:100020000C9446000C9446000C9446000C94460038
:100030000C9446000C9446000C9460000C9446000E
:100040000C9446000C9446000C9446000C94460018
:100050000C9446000C9446000C9446000C94460008
:100060000C9446000C94460011241FBECFEFD8E03C
:10007000DEBFCDBF11E0A0E0B1E001C01D92A23013
:10008000B107E1F70E9448000C9487000C9400002F
:10009000EAE2F0E0808180648083E4E4F0E0808143
:1000A0008260808389EF87BDEEE6F0E08081826028
:1000B00080837894E5E4F0E0808184608083FFCFE2
:1000C0001F920F920FB60F9211248F939F93EF936D
:1000D000FF9380910001909101010196909301019D
:1000E00080930001C29754F0109201011092000118
:1000F000EBE2F0E0808190E489278083FF91EF912B
:100100009F918F910F900FBE0F901F901895F894AC
:02011000FFCF1F
:00000001FF
