:100000000C9434000C9449000C9449000C94490061
:100010000C9449000C9449000C9449000C9449003C
:100020000C9449000C9449000C9449000C9449002C
:100030000C9449000C9449000C9449000C9449001C
:100040000C9449000C9449000C9449000C9449000C
:100050000C9449000C9449000C9449000C944900FC
:100060000C9449000C94490011241FBECFEFD8E036
:10007000DEBFCDBF11E0A0E0B1E0EEE3F2E002C0F0
:1000800005900D92AC33B107D9F70E944B000C9448
:100090001D010C9400002F923F924F925F926F923D
:1000A0007F928F929F92AF92BF92CF92DF92EF9208
:1000B000FF920F931F93DF93CF93CDB7DEB7EC97EB
:1000C0000FB6F894DEBF0FBECDBFDE011196E0E0A3
:1000D000F1E08DE001900D928150E1F7FE013E9636
:1000E00087E0DF011D928A95E9F7DE015596E4E18C
:1000F000F1E08DE001900D928150E1F7FE01B296A2
:1001000087E0DF011D928A95E9F7DE019996E8E222
:10011000F1E080E101900D928150E1F719AE1AAE45
:100120001BAE1CAEE1ECF0E0808188618083E2ECE4
:10013000F0E08081866080831092C5008CE080931F
:10014000C40060EC70E026EC30E00F2EF5E16F2E7D
:100150007724F02D6C0E7D1EC301562C492E44ECE5
:1001600059E01AE00DE00F2EF9E2EF2EFF24F02DFA
:10017000EC0EFD1EC701DE2CC92E5E010894A11CE9
:10018000B11CC5019A2C892EFB0180818823E4F7DC
:10019000D9019C91FB01808185FFFCCF9033C9F48C
:1001A000F50101900020E9F7892D982DDC011F0150
:1001B00008942108310806C08D91F9018083CA0195
:1001C0000197F1F7A215B305B9F7D9011C930C9368
:1001D000DBCF913361F0F70101900020E9F78D2D1D
:1001E0009C2DDC011F010894210831081FC0F30178
:1001F00001900020E9F7852D942DDC011F01089462
:100200002108310806C08D91F9018083CA01019748
:10021000F1F7A215B305B9F7D9011C930C93B4CF2C
:100220008D91F9018083CA010197F1F7A215B305F9
:0E023000B9F7D9011C930C93A7CFF894FFCF18
:10023E0048656C6C6F207468657265210000000063
:10024E00000000004F6820686169206465726521B6
:10025E0000000000000000004772656574696E675B
:0C026E00732C20776F772E00000000003A
:00000001FF
